S00E0000752D626F6F742E73726563C0
S31581700000B80000EA14F09FE514F09FE514F09FE5BF
S3158170001014F09FE514F09FE514F09FE514F09FE5C9
S3158170002060007081C0007081200170818001708153
S31581700030E001708140027081A0027081EFBEADDEF9
S31581700040DEC0AD0B0000A0E10000A0E10000A0E1E0
S315817000500000A0E10000A0E10000A0E10000A0E1A5
S3158170006028D01FE500E08DE500E04FE104E08DE5E5
S3158170007013D0A0E30DF069E10FE0A0E10EF0B0E1DD
S3158170008048D04DE2FF1F8DE850201FE50C0092E8A5
S3158170009048008DE234508DE20E10A0E10F0085E8A4
S315817000A00D00A0E1AD0000EB0000A0E10000A0E131
S315817000B00000A0E10000A0E10000A0E10000A0E145
S315817000C088D01FE500E08DE500E04FE104E08DE525
S315817000D013D0A0E30DF069E10FE0A0E10EF0B0E17D
S315817000E048D04DE2FF1F8DE8B0201FE50C0092E8E5
S315817000F048008DE234508DE20E10A0E10F0085E844
S315817001000D00A0E1A90000EB0000A0E10000A0E1D4
S315817001100000A0E10000A0E10000A0E10000A0E1E4
S31581700120E8D01FE500E08DE500E04FE104E08DE564
S3158170013013D0A0E30DF069E10FE0A0E10EF0B0E11C
S3158170014048D04DE2FF1F8DE810211FE50C0092E823
S3158170015048008DE234508DE20E10A0E10F0085E8E3
S315817001600D00A0E1890000EB0000A0E10000A0E194
S315817001700000A0E10000A0E10000A0E10000A0E184
S3158170018048D11FE500E08DE500E04FE104E08DE5A3
S3158170019013D0A0E30DF069E10FE0A0E10EF0B0E1BC
S315817001A048D04DE2FF1F8DE870211FE50C0092E863
S315817001B048008DE234508DE20E10A0E10F0085E883
S315817001C00D00A0E1690000EB0000A0E10000A0E154
S315817001D00000A0E10000A0E10000A0E10000A0E124
S315817001E0A8D11FE500E08DE500E04FE104E08DE5E3
S315817001F013D0A0E30DF069E10FE0A0E10EF0B0E15C
S3158170020048D04DE2FF1F8DE8D0211FE50C0092E8A2
S3158170021048008DE234508DE20E10A0E10F0085E822
S315817002200D00A0E1490000EB0000A0E10000A0E113
S315817002300000A0E10000A0E10000A0E10000A0E1C3
S3158170024008D21FE500E08DE500E04FE104E08DE521
S3158170025013D0A0E30DF069E10FE0A0E10EF0B0E1FB
S3158170026048D04DE2FF1F8DE830221FE50C0092E8E1
S3158170027048008DE234508DE20E10A0E10F0085E8C2
S315817002800D00A0E1450000EB0000A0E10000A0E1B7
S315817002900000A0E10000A0E10000A0E10000A0E163
S315817002A068D21FE500E08DE500E04FE104E08DE561
S315817002B013D0A0E30DF069E10FE0A0E10EF0B0E19B
S315817002C048D04DE2FF1F8DE890221FE50C0092E821
S315817002D048008DE234508DE20E10A0E10F0085E862
S315817002E00D00A0E1250000EB160000EA00000FE189
S315817002F01F00C0E3D30080E300F029E1010000EB29
S315817003008E0000EB1EFF2FE10000A0E37AFF17EE4F
S31581700310FDFFFF1A170F08EE150F07EE100F11EE7E
S31581700320030CC0E38700C0E3020AC0E3020080E3E6
S31581700330010A80E3100F01EE0E40A0E16F0000EB21
S3158170034004E0A0E10EF0A0E1E7FFFFEA0000000003
S3158170035004C09FE50CC08FE01CFF2FE1E50C000007
S3158170036004C09FE50CC08FE01CFF2FE1450C000097
S3158170037004C09FE50CC08FE01CFF2FE1A10C00002B
S3158170038004C09FE50CC08FE01CFF2FE1D90C0000E3
S3158170039004C09FE50CC08FE01CFF2FE15D0C00004F
S315817003A004C09FE50CC08FE01CFF2FE1DD0C0000BF
S315817003B004C09FE50CC08FE01CFF2FE1190C000073
S315817003C010402DE997D800EB7D0300EB9A0300EB83
S315817003D0150000EB0000A0E3170F07EE1080BDE853
S315817003E00030A0E37EFF17EEFDFFFF1A9A3F07EEFE
S315817003F01EFF2FE170402DE90040A0E10150A0E180
S31581700400360300EB000050E37080BD08050054E1AF
S315817004100200003A0030A0E39A3F07EE7080BDE893
S315817004203E4F07EE204084E2F7FFFFEA1EFF2FE181
S3158170043010402DE95E0300EB1040BDE8650300EACC
S31581700440034B012252425A61083200201A61704769
S31581700450000CC201104B30B5CE4600B598690F4974
S31581700460C04336F089F84946BC310A684B46B83381
S31581700470824209D80A681C68821A12191A60086041
S31581700480186820BCA94630BD0C68054D1A6852198A
S315817004901218121BF2E7C046000CC201C05D000043
S315817004A00CBB020030B5CE4600B50400FFF7D2FF13
S315817004B0001B20BCA94630BD0A491823584330B564
S315817004C08B690125DB43002800DC30BD8A69D24304
S315817004D0934203D29B1A18181300F4E7AC1AE318E7
S315817004E0F9E7C046000CC2014B4608B5FFF7B2FF6B
S315817004F0002108BC994600BDFA2080007047000033
S3158170050018D09FE507D0CDE3D0D04DE207D0CDE3AB
S315817005100D90A0E100502DE936D800EB0090BDE832
S31581700520307F000000000000000000000000000025
S3158170053000000000000000000000000000000000C4
S3158170054074009FE50700C0E300D0A0E15DD800EBA1
S3158170055000D0A0E10090A0E162D800EB0000A0E39A
S3158170056034D800EB4C0099E50700C0E300D0A0E1D8
S31581700570549099E50CE08FE2500099E500E08EE0A9
S315817005803C0099E5180100EA0D0100EB5CFFFFEB79
S3158170059028009FE528309FE50010A0E3002053E0F6
S315817005A00E0000EB2FD800EBFED700EB0900A0E11F
S315817005B03C1099E50CE09FE51EFF2FE1307F00002E
S315817005C0CCB57481042F768125B1708100000000CD
S315817005D00000000000000000000000000000000024
S315817005E0033010E200C0A0E11E00001A011481E1FF
S315817005F0011881E10130A0E1100052E30F0000BAC9
S3158170060000412DE90180A0E101E0A0E1402052E2A4
S315817006100A41ACA80A41ACA80A41ACA80A41ACA867
S31581700620F9FFFFCA0081BD08200012E30A41AC18A8
S315817006300A41AC18100012E30A41AC180041BDE8BA
S31581700640080012E30A00AC18040012E304108C143B
S31581700650020012E30110CC140110CC14010012E3D4
S315817006600110CC141EFF2FE1042052E2F7FFFFBA6E
S31581700670020053E30110CCB40110CCD40110CCE448
S31581700680032082E0D8FFFFEA010050E11EFF2F01AF
S3158170069011402DE9042052E22B0000BA03C010E20A
S315817006A000F0D1F53100001A03C011E23B00001A47
S315817006B01C2052E2E0012DE90C0000BA00F0D1F560
S315817006C0602052E21CF0D1F5020000BA3CF0D1F5FF
S315817006D05CF0D1F57CF0D1F5F851B1E8202052E289
S315817006E0F851A0E8FAFFFFAA600072E3F9FFFFAA4A
S315817006F01CC012E220C06CE20CF08F10110000EA6F
S315817007000000A0E1043091E4044091E4045091E446
S31581700710046091E4047091E4048091E404E091E4CE
S315817007200CF08FE00000A0E10000A0E1043080E4CD
S31581700730044080E4045080E4046080E4047080E4C2
S31581700740048080E404E080E4E001BDE8822FB0E1BA
S315817007500130D1140140D12401C0D1240130C0149B
S315817007600140C02401C0C0241140BDE81EFF2FE1A5
S3158170077004C06CE202005CE30130D1C40140D1A4B3
S3158170078001E0D1E40130C0C40140C0A40C2052E024
S3158170079001E0C0E4ECFFFFBA03C011E2C3FFFF0AB8
S315817007A00310C1E302005CE304E091E42C00000ACB
S315817007B0570000CA1C2052E21F0000BAE0032DE9DF
S315817007C000F0D1F5602052E21CF0D1F5020000BA3A
S315817007D03CF0D1F55CF0D1F57CF0D1F5F000B1E863
S315817007E02E34A0E1202052E20053B1E8043C83E12B
S315817007F02444A0E1054C84E12554A0E1065C85E1A1
S315817008002664A0E1076C86E12774A0E1087C87E104
S315817008102884A0E1098C88E12994A0E10C9C89E166
S315817008202CC4A0E10ECC8CE1F813A0E8E9FFFFAAF5
S31581700830600072E3E8FFFFAAE003BDE81CC012E224
S315817008400500000A2E34A0E104E091E404C05CE264
S315817008500E3C83E1043080E4F9FFFFCA031041E264
S31581700860B9FFFFEA1C2052E21F0000BAE0032DE9AE
S3158170087000F0D1F5602052E21CF0D1F5020000BA89
S315817008803CF0D1F55CF0D1F57CF0D1F5F000B1E8B2
S315817008902E38A0E1202052E20053B1E8043883E17A
S315817008A02448A0E1054884E12558A0E1065885E1F0
S315817008B02668A0E1076886E12778A0E1087887E154
S315817008C02888A0E1098888E12998A0E10C9889E1B6
S315817008D02CC8A0E10EC88CE1F813A0E8E9FFFFAA45
S315817008E0600072E3E8FFFFAAE003BDE81CC012E274
S315817008F00500000A2E38A0E104E091E404C05CE2B0
S315817009000E3883E1043080E4F9FFFFCA021041E2B8
S315817009108DFFFFEA1C2052E21F0000BAE0032DE929
S3158170092000F0D1F5602052E21CF0D1F5020000BAD8
S315817009303CF0D1F55CF0D1F57CF0D1F5F000B1E801
S315817009402E3CA0E1202052E20053B1E8043483E1C9
S31581700950244CA0E1054484E1255CA0E1065485E13F
S31581700960266CA0E1076486E1277CA0E1087487E1A3
S31581700970288CA0E1098488E1299CA0E10C9489E105
S315817009802CCCA0E10EC48CE1F813A0E8E9FFFFAA94
S31581700990600072E3E8FFFFAAE003BDE81CC012E2C3
S315817009A00500000A2E3CA0E104E091E404C05CE2FB
S315817009B00E3483E1043080E4F9FFFFCA011041E20D
S315817009C061FFFFEA3C0099E5102F11EE022A12E2CF
S315817009D00010A00364109F15FC05B0E8FC05A1E822
S315817009E0FC05B0E8FC05A1E81EFF2FE150109FE5DC
S315817009F0014050E01000000A48209FE5000CB1E8E4
S31581700A00000CA0E8020051E1FBFFFF3A38209FE518
S31581700A1038309FE50300B2E8FF1001E2170051E319
S31581700A200300001A040080E0001090E5041081E054
S31581700A30001080E5030052E1F5FFFF3A1EFF2FE1BA
S31581700A400000FFFF00007081CCB57481CCB57481D4
S31581700A50144A75814B4608B51A6884B0936C0093B5
S31581700A60D26C002301930292039302AA01336946E1
S31581700A700BF05AFD04B008BC994600BD074A10B503
S31581700A801368074C5C6004241C6013689860081AAC
S31581700A901968D86089005B18136010BDCCB57481F4
S31581700AA005004254114B30B56946CE46C9184B463E
S31581700AB000B51A68D26C002A14D01A68926C8A4270
S31581700AC010D81A681C68926CE46C1219013A9142BA
S31581700AD008D89C6B944201D29A6B013A521A0132B0
S31581700AE034F078F820BCA94630BDC04600F0FFFFCF
S31581700AF07047000070B54B46CE4600B51B6883B013
S31581700B001B6C01930300040094331E481E680D000C
S31581700B1008F040FB002809D001AA102135F0E4F9CC
S31581700B20002827DB0199184835F01EF98021890044
S31581700B300F200D4008F03BFCAD2008F038FCFFF724
S31581700B40D7FF1249002D00D11149124835F00CF9A1
S31581700B50C020C00017F012FE35F016FD2300A433B5
S31581700B601B68002B0AD0A0342268002D02D101990E
S31581700B702800B04703B040BCB14670BD4B461B6878
S31581700B805A6CF2E7B19F7381B89F73819A9F738113
S31581700B90F90A7481DD9F738170477047F0B5CE46CF
S31581700BA0060000B5414882B008F0F4FA3300A433E8
S31581700BB01B680700002B09D0300010F0C7FD002894
S31581700BC06DD03B4835F0D0F833F0D2FE4A46126884
S31581700BD0384C526C384D0521226022C22568684690
S31581700BE0AB60EB602B612B689B00ED18256000F084
S31581700BF09DFD324B6B6004232B60009BAB60019B28
S31581700C00EB602B00103323604B461B68002F1CD181
S31581700C104B461A682A492368042003C32368916C5A
S31581700C20D960D26C9A601A6892009B1823603300DF
S31581700C30A8331868002821D0596800291ED04B46E0
S31581700C401B68FFF71BFF21E001373B78202BFBD018
S31581700C50002BDDD01B4B6B61380034F003F92368B0
S31581700C6039000D30800818602068083034F09CF89F
S31581700C7023681A6892009B182360C9E733009833FA
S31581700C801868002802D059680029D8D12000FFF74A
S31581700C9083FF00224B461B6823685A601A603000B6
S31581700CA0FFF77BFF02B080BCB946F0BDA5BB7381EF
S31581700CB0F69F7381CCB5748101004154060041540D
S31581700CC00200415409004154F0B5CE461E0005001C
S31581700CD0C02304001D4000B518421FD14033070060
S31581700CE01F40184206D03000FFF758FF280080BC9D
S31581700CF0B946F0BDC023DB0005001D40184205D002
S31581700D0001003000FFF7F6FE3D00EFE73000FFF798
S31581700D1045FF21003000FFF7EDFEE7E701256D42C3
S31581700D20E4E7000030B5A030CE46040000B5006817
S31581700D3000280CD008492AF090FE002807DD20682B
S31581700D40FFF788FE002802D004480EF0C3FF35F005
S31581700D501BFC20BCA94630BD16A073811EA0738171
S31581700D6002004B46A032943008B5036810689847E4
S31581700D7008BC994600BD00000300053030B5C47FBC
S31581700D80981DC07F00022043DC1DE47F240420432C
S31581700D901C000834E47F240604431648844203D039
S31581700DA0154D0120AC4224D11C00180029342478B9
S31581700DB0283000782402044318002A300078000411
S31581700DC0044318002B300078000620430860190010
S31581700DD02C310878013109780902084319002E31BE
S31581700DE009782F331B78090401431B060B430020B6
S31581700DF0136030BD18286F01626F78004B46DA6CCC
S31581700E009A64DA6C0020103A08B4DA6408BC9946A0
S31581700E10704700004B4608B49B6C034A0833002028
S31581700E20136008BC994670474000708170470020F6
S31581700E30704700004B46024808B534F092FAC046B6
S31581700E40CA987381F0B5CE4600B5A2B002AD0400E2
S31581700E5046498022280035F027FCA26BE16B444815
S31581700E60266C34F081FF370F3F074B465A68D2079D
S31581700E7008D5196D1A6DA36B3E489A1AE36B591A88
S31581700E8034F072FFE36A226B616B3B4834F06CFF1E
S31581700E90236A626AA16A394834F066FF23690093CE
S31581700EA037486369A269E16934F05EFF236800930C
S31581700EB03448E1686368A26834F056FF4E21002F8A
S31581700EC000DB20315A22730000D420324323B000D4
S31581700ED000D420335620F60000D4203000902A4862
S31581700EE034F042FF206C2949030600D52849274AE8
S31581700EF0430600D5264A1F2303409B00EB58254D98
S31581700F00800600D4244D0095244834F02DFF226C40
S31581700F1020231700E56B1F401A4217D103239D4387
S31581700F20082616E063005A5B1D48002C00D01D48C8
S31581700F30310034F019FF013410E0022CF2D11A48D5
S31581700F4034F012FF22B080BCB946F0BD01239D43B7
S31581700F500426164834F008FF04246442002FECD12D
S31581700F60002CECDCA3005A59DEE7C04668677381B2
S31581700F7019177481131774813B1774815F17748184
S31581700F8083177481B3177481E3177481D5647481FF
S31581700F908DB5738100177481F90A7481F317748121
S31581700FA0051774810D177481F80A7481121874810A
S31581700FB030B5CE46040000B5054834F0D5FEE36BF6
S31581700FC02000043BE363FFF73DFFFFF733FFC04625
S31581700FD03AD2738130B5CE46040000B5054834F0F7
S31581700FE0C3FEE36B2000043BE363FFF72BFFFFF740
S31581700FF021FFC04650CF738130B5CE46040000B50F
S31581701000054834F0B1FEE36B2000083BE363FFF7DC
S3158170101019FFFFF70FFFC046B0CE738130B5CE464C
S31581701020040000B5054834F09FFEE36B2000083B51
S31581701030E363FFF707FFFFF7FDFEC0465CBC738174
S3158170104030B5CE46040000B5054834F08DFEE36BAD
S315817010502000083BE363FFF7F5FEFFF7EBFEC04622
S3158170106076CE738130B5CE46040000B5054834F02E
S315817010707BFEE36B2000083BE363FFF7E3FEFFF73C
S31581701080D9FEC04684C4738130B5CE46040000B59E
S31581701090054834F069FEE36B2000083BE363FFF794
S315817010A0D1FEFFF7C7FEC04689C4738170470000C1
S315817010B010B507480EF00EFE064833F0C1FFFFF7F4
S315817010C0B6FEFFF7F3FF002000F018F9002010BD7F
S315817010D00CCF738150C30000011080E0C4FCFFEA1D
S315817010E0013080E11F0013E30600000A0120A0E1B0
S315817010F010402DE90010A0E110009FE531D500EB7D
S315817011000000A0E31080BDE80100A0E31EFF2FE17F
S3158170111048A273810129A0E3CC2089E5CC1099E599
S315817011203C2099E50000A0E3012042E03C2089E55E
S315817011303C2099E52228A0E10228A0E13C2089E59E
S315817011403C2099E5C82089E51EFF2FE1F0FFFFEA73
S315817011501EFF2FE11EFF2FE1C83099E5001A81E14C
S31581701160031B81E3001183E71EFF2FE1002099E5C0
S31581701170043099E5010013E31EFF2F01802182E07F
S3158170118010402DE9480092E5200AA0E14C3092E5A5
S31581701190481092E5233AA0E1213A83E0000053E1B9
S315817011A01080BD981E10A0E3EAFFFFEB010080E27C
S315817011B0F5FFFFEA103F11EE013A83E3103F01EE2E
S315817011C01EFF2FE1103F11EE103F11EE013AC3E37E
S315817011D0103F01EE1EFF2FE110402DE9104F11EEE9
S315817011E0014014E21000001AD8FFFFEB0400A0E161
S315817011F01210A0E3014084E2D6FFFFEB010A54E3AB
S31581701200F9FFFF1A0000A0E3D7FFFFEBC83099E51D
S31581701210103F02EE0030E0E3103F03EECCFFFFEBB0
S31581701220103F11EE013083E3103F01EE103F11EE56
S31581701230043083E3103F01EE1080BDE8103F11EE5C
S31581701240040013E31EFF2F0110402DE9104F11EE9C
S3158170125062FCFFEB0540C4E3104F01EE1080BDE8E0
S31581701260100F11EE2001A0E1010000E21EFF2FE1B7
S315817012704B4608B500F050F8FFF7E2F8052180205B
S3158170128000F078F80521812000F074F80121812021
S3158170129000F0B0F800F0A7F908BC994600BD0000CF
S315817012A04B4608B513490822042033F053FE0028B3
S315817012B01AD12823197803290CD8013901300229CA
S315817012C005D8080035F038FA020E1200042008BCE1
S315817012D0994600BD10290BD002201229F7D00648F5
S315817012E034F03FF80220F2E70C20F0E70820EEE7B1
S315817012F00120ECE7746A74817D6A7481034B0122E3
S315817013005A619A61024A1A61FEE7C046A00CC2010F
S31581701310AF1400007047704710B500F08BF8FFF777
S31581701320FAFF002010BD0000064B1B680360064B58
S315817013301B684360054B1B688360054B1B68C360E4
S31581701340002070470038C2010438C2010838C201D2
S315817013500C38C20110B58C00C906890F89004118F5
S315817013601C231C400F200B68A0408343A24013436B
S315817013700B6010BD0A0010B5410924244C4303004B
S31581701380044820180A2901D8034960181900FFF703
S31581701390E1FF10BD742AF0010008C201CB069B0FD4
S315817013A09B00C01800681C2389001940C8400D3BFA
S315817013B01840704770B546090C002421C5061E2356
S315817013C0714340001840094BED0FCB180A2E01D896
S315817013D0074BCB18AD0014335B1919680322824011
S315817013E08440914321430020196070BD742AF001B5
S315817013F00008C20170B546090C002421C5061E235A
S31581701400714340001840094BED0FCB180A2E01D855
S31581701410074BCB18AD001C335B19196803228240C8
S315817014208440914321430020196070BD742AF00174
S315817014300008C2010B4B0C4A1A608022520519684A
S315817014401142FCD009490A4BC62292011A60802347
S315817014500A685B031A430A60064A11680B43136074
S315817014607047C0462800C201001804906800C20106
S315817014705400C201D002C201054B1B68D8049B0679
S31581701480C00E9B0F013301305843024B584370474E
S315817014902800C20100366E0130B5CE4600B5040013
S315817014A000230A4903221420DD7D33F053FD002881
S315817014B006D1A54206D206482A00210034F054FC92
S315817014C00120404220BCA94630BDC04612F47381CA
S315817014D016F47381F0B5CE4600B592B000210D2217
S315817014E0060005AD0EA80D9135F016F92800FFF7A7
S315817014F01BFF041E48D1059B002B45D00C2206A9E3
S3158170150033F0C0F9030243D00227E86025492200EF
S3158170151009A834F01DFC09A930002AF0AAFA00281E
S315817015201DD0002C38D1204909A833F03DFC09A87B
S3158170153007F030FE002812D1230103A93B430B70BB
S315817015402B684B70AB891A021B0A1A43EB688A8027
S31581701550180E88701B0C09A8CB7007F07BFE0134BE
S31581701560042CD3D1114C200007F014FE00280BD126
S31581701570EB68112100930E4A059B0DA834F0D3FBBD
S315817015800DA9200007F0A2FC12B080BCB946F0BD4F
S3158170159080231B041843B7E70649220009A834F053
S315817015A0D7FBC4E73F1674814A1674815C167481C1
S315817015B0641674815216748130B5CE46A024022584
S315817015C000B520002900FFF7D5FE01212000FFF725
S315817015D011FF200029000134FFF7ECFEA62CF0D113
S315817015E020BCA94630BD704730B54B46CE4600B556
S315817015F01A4D1B681A4A5A6428001DF06DFE1949E6
S3158170160004001DF08CFB012120001DF0E9FB1648BA
S3158170161033F016FD28001DF05FFE144904001DF09D
S315817016207EFB012120001DF0DBFBFFF7C5FF280043
S315817016301DF040FE402420000321FFF79BFE01210F
S315817016402000FFF7D7FE200002210134FFF7B2FE9A
S31581701650432CF0D1002020BCA94630BDF90A748193
S31581701660000100800F9C738120A10700179C7381F4
S315817016704B4608B50320FFF70FFF431C11D180211C
S315817016800906080012F046FB4B4618644B46196CE6
S3158170169080221206914200D91A64002008BC9946AC
S315817016A000BD436A4A461B051364EFE710B5CE4603
S315817016B000B585B001AA0021622017F050FA041E88
S315817016C008D01449144834F04FFB200005B010BC83
S315817016D0A14610BD1149019802AA18F0ADFF041EEA
S315817016E003D0019B0E485968EDE702A818F0BAFF3E
S315817016F0041E03D0019B0B485968E4E702A81CF0CD
S315817017002BFF04000128E0D1074834F02DFB143CEF
S31581701710DBE7C0464E91738147F27381BD627481F6
S3158170172063F273817DF2738198F2738130B5CE469F
S31581701730040000B5074807F02DFD002808D0102257
S31581701740002134F025FC6160206020BCA94630BD43
S315817017506060F9E75C16748170B5294ECE4600B526
S31581701760002187B0300007F0B1FB264D002128009B
S3158170177007F0ACFB244C0021200007F0A7FBFFF794
S315817017808FFD0C2831D12149300007F09FFB012054
S31581701790FFF782FE431C0FD0816900290CD0C26984
S315817017A0002A1ED000230393029301930133009381
S315817017B01748093332F060FD4B46986EFFF78AFE03
S315817017C005A9622017F023FA059B002B01D000280A
S315817017D002D0104834F0C8FA002007B040BCB14638
S315817017E070BD280007F0A2FBE6E70B49012802D0FD
S315817017F00228E1D10549200007F068FBDCE7C04685
S31581701800070274811202748121027481EE6B748174
S3158170181040A074812D027481BB9873814B4608B543
S31581701820FFF758FE002008BC994600BD030010B52D
S3158170183008001100984710BD70B514001D00012A6B
S3158170184017DD58681022002134F020FB0100060054
S31581701850094834F089FA611E2A1D3000FFF7E6FFC8
S31581701860040001000548631E9C4134F07DFA200016
S3158170187070BD01246442FAE7C5C47381EDC4738176
S31581701880F0B5CE4600B51C0088B00433571E0500EE
S315817018900E0004920593002F35DD6068102207A92A
S315817018A034F0F4FA079B1B78002B2CD03A2B2AD074
S315817018B0232B28D009221849606812F078FC049A83
S315817018C02300023A083300280DD0C16813480129D4
S315817018D00FD0CC070ED40400C0342468A14209DC31
S315817018E00F4834F041FA0120404208B080BCB946B5
S315817018F0F0BD0721002402940190009131002800E7
S3158170190009F092FCF1E701230293044B0193054B95
S3158170191000933A00059BF1E7248174810CC0748130
S3158170192018B673811F07000030B5CE4600B50C001E
S31581701930044807F02FFC210012F086FB20BCA946D3
S3158170194030BDC046CEDA738130B5CE460100050012
S3158170195000B5314834F008FA28000FF085FC040090
S3158170196002283ED0032835D02C48012C42D12C48F0
S315817019700EF0B0F92B68FF20190E1A060A4300047F
S31581701980190201400A43FF211B0A09020B401343C6
S31581701990244A2548934205D128000FF073F900280F
S315817019A006D122480EF096F9200020BCA94630BD9A
S315817019B028000FF017FB1E480EF08CF928000FF0E7
S315817019C086F9002801D11B48ECE71B480EF082F995
S315817019D00024E9E719480EF07DF9280010F086F9A0
S315817019E0F6E717480EF076F9280011F081FD002888
S315817019F004D114480EF06EF90124D5E7280011F050
S31581701A004BFA280011F0CCFC0024A042CCD10E48B0
S31581701A100EF060F90134C7E74DF873813DF9738132
S31581701A206EF873815619052785F873819AF87381D3
S31581701A30B2F87381CDF87381DEF87381E2F87381C0
S31581701A40FAF873810EF9738125F97381F0B5CE46F3
S31581701A5000B5012A08DC0E4B1868FFF775FF060082
S31581701A60300080BCB946F0BD92001C1D9D180026C1
S31581701A70012710220021206834F008FAFFF764FFED
S31581701A80002800D03E000434AC42F2D1E8E7C0466B
S31581701A903098748170B5CE4600B5050083B00F4815
S31581701AA00E0007F077FB002804D1002003B040BCFC
S31581701AB0B14670BD0A4933F0A9F9041EF5D1094BB7
S31581701AC0019019680848009634F04EF96B460122E8
S31581701AD021002800FFF7D4FEE8E7C04609A273818A
S31581701AE013A273813098748117A2738173B50500BF
S31581701AF0064C07480E00241A0649A41001930092D9
S31581701B0033002A00614312F0B7FB76BD08AA74814F
S31581701B1080A17481B76DDBB600B5B3B0C822694652
S31581701B20002032F03FFD34F01FF904480EF0D2F8F0
S31581701B3003480EF0CFF8002033B000BDE6D573812F
S31581701B4023D67381F0B5070087B010000C0015009D
S31581701B501E0018F011FE0390022F3CD004DC012F79
S31581701B6004D801277F4240E0032F67D063496068BC
S31581701B7033F04CF9071E00D090E001001022A06866
S31581701B8034F084F9390010220590E06834F07EF9DA
S31581701B90390010220490206934F078F9049B3268F8
S31581701BA0039904000090564834F0DEF8059B049A38
S31581701BB0009331682300280018F0BEFF514A070050
S31581701BC0844200D0504A51483900E71B34F0CCF832
S31581701BD0781E874109E04E496068032233F024F903
S31581701BE0071E05D1280018F055FE380007B0F0BDE4
S31581701BF048496068032233F017F900280DD131689E
S31581701C00280018F06BFE002801D10027EDE70399B3
S31581701C10414834F0A9F80127E7E740496068042212
S31581701C2033F002F9071E9CD1280018F0F3FD0028C5
S31581701C30EBD003993A4834F097F8D6E7354960681E
S31581701C403A0033F0F1F8011E0FD1A0680A2234F000
S31581701C501DF901000400280018F058FE071EDAD11C
S31581701C603460304834F080F8BFE72C4960680422CC
S31581701C7033F0DAF8011E00D073E7A0680A2234F0D7
S31581701C8005F904000100280018F0ECFD0028BCD08D
S31581701C9003992200244834F067F8BCE723496068C9
S31581701CA033F0B4F8071E00D05BE701001022A068FC
S31581701CB034F0ECF8390010220590E06834F0E6F8DB
S31581701CC0390010220490206934F0E0F8049B326860
S31581701CD0039904000090164834F046F8059B049ADF
S31581701CE0009331682300280018F058FF054A0700D1
S31581701CF0844200D0044A0F48390066E71A3A7481E3
S31581701D007D997381FC987381FF987381AD99738185
S31581701D1005997381F21A7481099973814846748120
S31581701D2023997381459973816099738166267481CC
S31581701D30C2997381F3997381F7B504004C480E008B
S31581701D4024F04EF9070020000FF08EFA0500012865
S31581701D5003D0022846D047484AE02368FF20190EEF
S31581701D601A060A430004190201400A43FF211B0A1D
S31581701D7009020B401343404A4048934205D12000E3
S31581701D800EF080FF002804D13D480DF0A3FF280096
S31581701D90FEBD002F06D020000EF099FF002801D1DC
S31581701DA03848F2E7A37F3848062BEED1236C2000A2
S31581701DB01A0E1906FF24114324041A022240114374
S31581701DC0FF221B0A120213404030194301D12F485A
S31581701DD0DBE703680430002BFBD1002212F040F957
S31581701DE00500D4E7200011F083FB002803D1284831
S31581701DF00DF070FF1AE0002E0ED12649200029F0D1
S31581701E002CFE011E01DA2448F2E73300234A2000B2
S31581701E1029F06DFD061EF6D03100200010F00AFD06
S31581701E20051E05DA1E48310033F09EFF0125AEE7A7
S31581701E3001000622200011F02FFB002801D11948DC
S31581701E40D6E7002F07D02900200011F07BFA0028F1
S31581701E5001D11548CCE701AB6A462900200010F004
S31581701E607DFD002801D01148C2E700980199B4E739
S31581701E70DFFA7381BCFB738156190527E6FA738184
S31581701E80F8FA738108FB738116FB738126FB738164
S31581701E90CCA4738134FB73813CFB7381224574813D
S31581701EA057FB738175FB738188FB738197FB738194
S31581701EB013B51C0000230193012A0BDC81231B06B9
S31581701EC0009300990B4833F04FFF01990098FFF703
S31581701ED033FF16BD08496068096801AB6A4610F020
S31581701EE072FC011EEDD16068102233F0CFFF009035
S31581701EF0E7E7C04664CF7381309874814B4608B5E5
S31581701F0008220B000100034833F02EFF08BC994666
S31581701F1000BDC046771174814B4608B503490448A4
S31581701F20202233F021FF08BC994600BD6B0F748166
S31581701F30710F748130B54B46CE4600B51C68264804
S31581701F40216CFFF7DBFF616C2448FFF7D7FFE36CE9
S31581701F50002B0BD022480021FFF7D0FFA16C2148BE
S31581701F60FFF7CCFFE16C2048FFF7C8FF4B469968B5
S31581701F701E4833F0F9FE1E484B46C8331968FFF781
S31581701F80BDFF1C484B46D96BFFF7B8FF1A484B46C5
S31581701F90196DFFF7B3FF19484B46996CFFF7AEFF82
S31581701FA017484B46D96CFFF7A9FF8022D200154896
S31581701FB04B46A833196833F0D7FE4B469A6E002A82
S31581701FC003D0996E1048FFF799FFFFF7A5FF0020A0
S31581701FD020BCA94630BDC0462BB5738137B5738198
S31581701FE043B573814DB5738156B573815EB5738112
S31581701FF074B573817DB5738187B5738191B573813D
S3158170200098B57381A2B57381C0B57381F8B5050032
S315817020100E001400012A02DC01204042F8BD0949F4
S3158170202058680222013C1F1D12F0C1F80028F3D0B6
S31581702030C36822009C4631003B0028006446A04755
S31581702040ECE7C046CC82748170B51C00032A16D128
S3158170205000225868110033F019FF00221100050023
S31581702060A06833F013FF01000400280018F078FF90
S3158170207004482A00210033F077FE002070BD0120CC
S315817020804042FBE7939B738100B58BB005A818F02E
S315817020908FFF099B0193089B03930093069A079B75
S315817020A00599034833F060FE00200BB000BDC04631
S315817020B0C39B7381F0B589B0541E1F1D244A059345
S315817020C0012302930192009322003B000D0004903C
S315817020D009F0AAF81E4E9436002C0ED11D4B1B6842
S315817020E033601B4E07AA9436306806A9FEF744FE04
S315817020F000280AD0012009B0F0BD059B10225868CE
S31581702100002133F0C3FE3060EBE7079B069A316896
S315817021109A1A114832F05EFD3A002100280009F0C2
S3158170212029F80028E6D109F073F8094B0522923314
S315817021301A7001230293064B0193E223DB0000930D
S3158170214004983B002200290009F06EF8D3E7C04657
S315817021500CC0748130987481D0C07481F7B511F0D8
S315817021604DFE060015480DF0B5FD3468B44201D1B7
S315817021700020FEBD2700443F3A68210001203C398A
S315817021804923024200D11B3B4F20950700D4213849
S3158170219000900B4833F0E8FD00250A4B5B59BB4232
S315817021A004D1094B0948595933F0DEFD04350C2D9C
S315817021B0F3D10A200DF046FD2468D7E730BC7381D0
S315817021C04CBC73817019758134987481FEA3738147
S315817021D000207047F0B5CE460F0015001E0000B581
S315817021E0012A04DC0120404280BCB946F0BD5868A2
S315817021F00422094911F0DBFF3300AA1E0833041E3D
S31581702200F0D041689142EDDB3900C568A84701007D
S31581702210200012F03BFBE7E70C8574814B4608B5CD
S3158170222017F018F8002008BC994600BD4B4608B5D2
S3158170223016F0C2FF002008BC994600BD4B4608B512
S3158170224016F0A0FF002008BC994600BDF0B585B098
S31581702250039301231E0002920193029B9E4208DB27
S31581702260019B002B02D00A200DF0ECFC002005B0FA
S31581702270F0BD039AB300D558012E02D020200DF0FF
S31581702280E1FC0F4F2800390032F07BFE041E13D01B
S315817022900023280023700DF01DFDA51C5C2323707F
S315817022A03900280032F06DFE041EF1D128000DF040
S315817022B011FD01940136D0E728000DF00BFDF9E789
S315817022C068BC7381F0B52C4885B01D00019206F00B
S315817022D061FF019B2F1D5E1E0090002E3DDD6C6897
S315817022E023782D2B37D16378702B01D0732B32D114
S315817022F0019E0835023E2F00002E2FDD386803AA15
S31581702300102133F0F1FD163028D0013E0437039841
S3158170231033F0BCFF012500281AD00398002C21D0F8
S315817023206378702B1ED133F04CFF009B0390002B8A
S315817023301BD10399114833F017FD039B3900300087
S315817023409847050001000E486B1E9D4133F00CFDC8
S31581702350280005B0F0BD0024D0E70024094B1B6826
S315817023600393D4E733F05DFFDFE70749009832F0D6
S315817023704DFD051EDDD1EBE709A27381C9B5738168
S31581702380F1B5738130987481F55A7481F0B5A3B0C3
S31581702390012A0FDC6B4B1E686B480DF09BFC6B48FA
S315817023A006F0F8FE00280CD1694833F0DDFC012077
S315817023B023B0F0BD58681022002133F067FD060006
S315817023C0EAE71022002133F061FD0700614806F0CB
S315817023D0E1FE051E75D1604806F0DCFE041E00D153
S315817023E09EE0010002A832F0DFFC200032F03AFD57
S315817023F004005A4806F0CEFE02AB0200E018002AAD
S3158170240000D191E0564933F0A3FC2418554806F063
S31581702410C1FE021E26D002ABE018534933F098FCF8
S31581702420524D2418280006F0B5FE02AAA31801930E
S31581702430002800D17CE0280006F0ACFE2BF00AF86B
S31581702440FF210904030E02061A4303020B401A4345
S31581702450FF23000A1B02184002434549019833F055
S3158170246077FC2418434806F095FE021E05D002AB10
S31581702470E018414933F06CFC2418404806F08AFE16
S31581702480021E05D002ABE0183D4933F061FC241879
S315817024903C4806F07FFE021E05D002ABE0183A4931
S315817024A033F056FC2418394806F074FE02AD031ECB
S315817024B0019006D02819190032F076FC019832F015
S315817024C0D1FC280032F0CEFC0200FF2800D2FF2218
S315817024D02900380034F0E8F8280032F0C3FC010096
S315817024E0FF2800D2FF21380034F0C6F828483A0018
S315817024F0390033F039FC300033F0C8FE00281CD027
S31581702500300033F05EFE06003100224833F02CFC39
S3158170251034F0F2F80020B0471F480DF0DBFB46E738
S315817025201E4833F021FC64E71D4933F011FC6CE7DA
S315817025301C49019833F00CFC93E71B480DF0CAFBDC
S31581702540E2E7C04630987481B0BA7381DEBA73811E
S31581702550E7BA7381A5BB73812502748138BB738198
S3158170256041BB738158BB73815FBB738164BB73815C
S315817025706CBB738173BB73817CBB738182BB7381CB
S315817025808CBB738192BB73819BBB7381A2BB73813D
S31581702590AEBB7381F5BB738119BC738112BB7381B9
S315817025A04ABB738137F07381CFBB7381002110B5BC
S315817025B0012A04DD58680A2233F068FC0100022082
S315817025C04042401A10BD13B50224009424F0FCFDDC
S315817025D016BD13B50224009424F01AFE16BD13B5E8
S315817025E00224009424F014FF16BD13B502240094BE
S315817025F024F00EFE16BD13B50224009424F008FF54
S3158170260016BD13B50124009424F0DEFD16BD13B5F5
S315817026100124009424F0FCFD16BD13B501240094A9
S3158170262024F0F6FE16BD0000F0B51D00A3B0012A98
S3158170263006DC114833F098FB0024200023B0F0BDEE
S315817026400124A968686804AB03AA009412F00CFF90
S31581702650061EF2DB039804A9476827F0A1FC0028BF
S3158170266006D0696833003A00044833F07DFBE4E7AD
S3158170267027F0DEFC0400E0E735BF738160BF7381AC
S31581702680F0B51D00ABB0002305920993042A05DCD1
S3158170269011F0D2FD040020002BB0F0BD0127A9688E
S315817026A068680CAB09AA009712F0DEFE3C00061E24
S315817026B0F1DB09980CA94368069327F071FC041E17
S315817026C007D0069A69681E48330033F04DFB0124A2
S315817026D0E1E701001022E86833F0D8FB059B07908B
S315817026E0052B23D010226869210033F0CFFB059B1F
S315817026F022000700062B05D01022A869210033F02D
S3158170270014FC02000AA90291002101912869079996
S31581702710D317009728F068F800280ADA069B6A684A
S3158170272029690096074833F01FFBD0E722002700FE
S31581702730E8E70A9A0B9B044833F016FBABE7C04671
S315817027408BBF7381B7BF7381E2BF738113B5012468
S31581702750009424F039FF16BD13B50124009424F03A
S315817027604DFF16BDF0B5CE4600B505680400002D47
S3158170277006D1274833F0F8FA280080BCB946F0BDF7
S31581702780280028F099FB06000120002EF5DA30002A
S3158170279029F014FB01001F4833F0E6FA0A3631D16D
S315817027A06B69FF201A0E1906114300041A02024042
S315817027B01143FF221B0A120213401943012903D8C0
S315817027C01548022233F0D0FAAA69FF26110E130634
S315817027D00B4336041102FF203140120A00020B436B
S315817027E002401A43112A0DD96B691A0E19061143C3
S315817027F01A0216401B0A03403143084819431122B5
S3158170280033F0B2FA064833F0AFFA00202060B4E7AD
S315817028101DE7738148E7738166E773817EE773810C
S31581702820F80A7481030010B5081E1FD05A18013A30
S315817028301278002A01D00A2A07D10D4948241A78BC
S31581702840002A0FD08A5CA24309D100200EE00128AC
S315817028500CD05A78002AF8D001330138EFE7002876
S31581702860FADCF2E70028F2DC4342584110BDC046DB
S31581702870A4937381F0B5CE4600B5050082B00F1E64
S315817028800DD0FFF7CFFF041E20D0344E00243000C8
S315817028900DF020FABC4206DB30000DF01BFA02B057
S315817028A080BCB946F0BD002C02DD2D480DF012FAC0
S315817028B028000DF00FFA280032F0D4FA013424186A
S315817028C0280032F0CFFA01302D18E3E7032637421C
S315817028D02FD1402F05DD3A002900224833F044FA82
S315817028E0DDE7214833F040FAF9170E40F619B61034
S315817028F0FF27731E3F020193B44203DB1B4833F0FB
S3158170290033FACCE7A300EB58FF201A0E1906114350
S3158170291000041A0202401B0A11433B401943019B72
S31581702920134A9C4200DB134A134833F01DFA013473
S31581702930E2E7402FCFDC114833F016FAA74201DC6B
S315817029400F48DCE77B1E295D094A9C4200DB094AF8
S315817029500C4833F009FA0134F0E7C046830F74816D
S31581702960800F7481850F748194317481A9317481DA
S3158170297037F07381F90A7481950F74819E0F748112
S31581702980F4457481A00F74814B4608B5044B0100E0
S315817029901860044806F0CAFA08BC994600BDC0465C
S315817029A0D0B9748137167481F0B5CE4600B594B0BE
S315817029B01C000292012A02DC01277F4262E0C7492C
S315817029C05868022232F030FA071E00D071E0029BFD
S315817029D09D1E022B01D100F00EFEC149A06832F016
S315817029E015FA002853D1029BDD1E032B31D00123AA
S315817029F00C34029320681022002133F047FA0600C6
S31581702A00089008A8FFF7AEFE002829D0029B002BFC
S31581702A1040D0089A4B469A66012D33D06068102251
S31581702A20002133F033FAFF252D040100089843689D
S31581702A301C0E1A0622431C022C402243FF241B0AB9
S31581702A40240223401A43914228D2A64833F08CF946
S31581702A5018E04B469B6E01250893089B002B01D18C
S31581702A6001270FE008A8FFF77DFE0028F8D00899A6
S31581702A70002D04D129009C4806F0BAFB01009B48C1
S31581702A8033F072F9380014B080BCB946F0BD0834A1
S31581702A900297AFE73000FFF777FFBDE70A000100C5
S31581702AA029F0DAFD0028EDD029F088F901009048E7
S31581702AB0E6E7904D2B68002B03D18F480DF00AF90C
S31581702AC0CEE78E496068022232F0AEF9061E54D185
S31581702AD0029B032B00DC6FE701001022A06833F0A4
S31581702AE0D5F928602800FFF73DFE0028B8D0E06848
S31581702AF01022310033F0CAF9029B0390042B1CD14A
S31581702B002B68FF20596800040A0E0B0613430A02CC
S31581702B1002401343FF22090A120211400B430399A3
S31581702B2028681A0029F098FD071E22D029F046F9E7
S31581702B3001006F4833F018F992E73100206910224D
S31581702B4033F0A4F92A68FF26360401000300506821
S31581702B50040E02062243040234402243FF24000AF3
S31581702B602402204002439142D9D2654833F0FCF861
S31581702B7076E70398FFF708FF84E762496068022267
S31581702B8032F052F900281DD1029B032B00DC13E72A
S31581702B90A1682868E66828F060FF002804DA29F0C1
S31581702BA00DF901005848C5E701003200286829F0FF
S31581702BB021FD002801DB002764E729F0FFF8010079
S31581702BC05248B7E752496068022232F02DF9071EE2
S31581702BD000D0F5E0029B032B00DCEDE6E368A1688B
S31581702BE02868059328F039FF0390002807DA29F0C1
S31581702BF0E5F801370100444833F0B6F842E7029BA5
S31581702C00042B11D106973B48069B0093059A414B3D
S31581702C100399006829F065FC002800DB32E729F00A
S31581702C20CDF801003C4885E7059A039906AB28687B
S31581702C3028F05DFE069A8023DB0001009A4202DD50
S31581702C403648110076E7334D002802D0280033F0DC
S31581702C502BFD230010330493029B0026043B0293C1
S31581702C602369069608931A783C2A64D101330893AE
S31581702C70089C21783E29C6D0029BB34201DC284844
S31581702C8058E7002904D1049A0136B3009B58EEE7C0
S31581702C90002208A9200033F0F9F823783F2B18D049
S31581702CA0020E0306FF211343090402020A401343ED
S31581702CB0FF22000A1202104018432860069B0435D1
S31581702CC004330693089B1B1B002B2FDC15482100B0
S31581702CD030E7089B01330893F0E7C046FECF7381D6
S31581702CE00FC0738134C073813716748112C073813A
S31581702CF063C07381D0B974817FC07381EFC0738172
S31581702D00F2C0738125C1738128C173814EC173816C
S31581702D10EB337481D0B57481CEC173816CC173818B
S31581702D20B3C1738192C1738101330893089B1A78F9
S31581702D30202AF9D09CE734005B2A2CD101334426B2
S31581702D400893089B1B785D2B02D114E001300890A3
S31581702D5008980378202BF9D0002B08D1049A013476
S31581702D60A3009B580893029BA342EADC03E0B84A0E
S31581702D70D35C334205D1089B19785D2900D142E72E
S31581702D807DE7102208A933F081F8069B01330693FB
S31581702D9028700135E7E7089832F064F808990134AC
S31581702DA0461C280032F000F8069B049AAD199E19CC
S31581702DB0A300D3580893029B0696A342EBDC22E7C5
S31581702DC060680378672B00D0CAE000230693029B64
S31581702DD0042B00DCF0E5A3680393029B052B04D1D9
S31581702DE0039B1B78732B00D0E6E56369216928689C
S31581702DF0E668049328F031FE071E00DACFE6039B5E
S31581702E001B786E2B04D0732B4DD1029B052B4AD127
S31581702E103900286828F0CDFE390008AA02900890FA
S31581702E20286828F0D4F9039B1B7807006E2B32D162
S31581702E3060691022002133F029F8049001246442DC
S31581702E40089A029B9A421DDD029B01339B1A5A4254
S31581702E505341E418039B1B786E2B0CD1049B9C42C7
S31581702E6009D139002868002228F0A3FB01003000BF
S31581702E7006F02CF89FE63900286808AA28F0A7F989
S31581702E80071EDDDA039B1B78732B08D1611C30001A
S31581702E9006F03EF88FE601235B420493CEE76D48D8
S31581702EA032F062FFDCE528683900049A06AB28F0B7
S31581702EB01EFD069C68490500002CD8D0002849D093
S31581702EC0002C47DD039B1B78762B34D12100FFF7CD
S31581702ED0A9FC2900071ECAD1042C16D12B68FF20A4
S31581702EE0190E1A060A430004190201400A43FF218A
S31581702EF009021B0A0B401A43584908A832F028FF69
S31581702F0008A9300005F0E2FFBCE5A30711D1142CA6
S31581702F100FDC0290029B5249580008ABC018029B85
S31581702F20EA5832F015FF029B043302939C42F1DC1E
S31581702F30E6E74C48B4E7612B06D14B49020008A8F5
S31581702F4032F006FF08A992E7732B00D034E5434926
S31581702F502200F4E7200028F031FF01004348E9E5BB
S31581702F60702B20D001276C2B1ED04149022231F063
S31581702F705BFF002800D014E1A168286828F06DFDF8
S31581702F80011E00DA0BE6029B2868032B00DCFEE04B
S31581702F90E26829F0BAFA071E00DB0CE628F00EFF0C
S31581702FA0010034486CE52027029B022B1DD0A36853
S31581702FB00393029B0026032B00D0E6680399286849
S31581702FC028F04BFD041E00DAE9E5002E77D001006A
S31581702FD008AB2868320028F08AFC089F0400002F0D
S31581702FE007D103992448320030E5244B0026039398
S31581702FF0E4E700280DD0002F0BDD3100204832F038
S31581703000B3FE08992000FFF735FC1E4832F0ACFEFE
S31581703010D1E538009FE700222868210028F0C9FA97
S315817030200200B7420CDB00280FD00378002B00D149
S31581703030154A164920239B1B1548C91832F094FEF0
S3158170304001361F2E37DD13482AE7134AF1E7C0464A
S31581703050A4937381E8C17381F90A7481FFC1738105
S31581703060FB05748106C2738120C2738125C2738107
S31581703070B955748199C2738131F87381608C748109
S3158170308072C27381F80A74811D187481628C74811D
S315817030903FC2738147C27381F6BF7381013EB74266
S315817030A009DBDB4920239B1BDA48C91832F05CFEA9
S315817030B0002E00D17FE5069C731C00D17BE5D64D31
S315817030C02100286806AA27F0EDFF0100013808283B
S315817030D058D833F001FBA0FFE3FF09004F0057007A
S315817030E0570057005700C5FC210028680C2227F02D
S315817030F08FFF816804000A0E0B06FF2013430004BC
S315817031000A0202401343FF221202090A114019432F
S31581703110286828F0DBF96368FF25190E2D040200F3
S3158170312018060843190229400843FF211B0A090220
S315817031300B401843089000D50DE709D1B742BADB29
S31581703140B34920239B1BC918B44832F00DFEB2E7F0
S31581703150B742B0DBAE4920239B1BC918B04832F009
S3158170316003FE200008990C30FFF784FBAD4832F0DE
S31581703170FBFDA0E7A64920239B1BC918AA4832F0FC
S31581703180F3FD98E7B74200DA6AE4A848D2E429F0F9
S315817031903FFA071E00DB0EE528F010FE0100A448F9
S315817031A06EE460680378682B00D0CCE0029B2E6851
S315817031B0052B26D1A3681B78672B00D050E4002598
S315817031C0AB0002939B4BAA002169D05831F01EFE49
S315817031D0071E03D001350A2DF2D141E4029BFF20EF
S315817031E0F35800041A0E190611431A02024011434C
S315817031F0FF2212021B0A1340E068194305F096FEFE
S3158170320040E47369FF27190E1A063F040A43FF24A7
S315817032101902240239401B0A0A43234031681A4332
S3158170322002920B060A0E13430A023A40090A1343A5
S3158170323021401943804832F097FD2B687F485A6840
S31581703240130E1106194313023B40120A1943224089
S3158170325011430A0032F088FD2B68794899680A0E05
S315817032600B0613430A023A40090A13432140194354
S3158170327032F07AFD2B687348D9680A0E0B061343B0
S315817032800A023A40090A13432140194332F06CFD10
S315817032902B686D4819690A0E0B0613430A023A4068
S315817032A0090A13432140194332F05EFD029967483A
S315817032B032F05AFD2B68664899690A0E0B061343DC
S315817032C00A023A40090A13432140194332F04CFDF0
S315817032D0029B012B2FD92B685E48D9690A0E0B0682
S315817032E013430A023A40090A13432140194332F0C3
S315817032F03BFD029B022B1ED02B685748196A0A0E1A
S315817033000B0613430A023A40090A134321401943B3
S3158170331032F02AFD029B102B0DD92B684F485B6AC0
S315817033201A0E190611431A0217401B0A39431C409B
S31581703330214332F019FD286828F012F901004848B6
S3158170334032F012FD61E64749032231F06DFD071EA9
S3158170335015D101001022A06832F098FDFF24240453
S315817033602A68010E03060B43010221400B43FF219C
S31581703370000A090208401843D061FFF783FB3A4976
S315817033806068022231F050FD061E18D110220100AC
S31581703390A06832F0FDFD102207000291E0683100CD
S315817033A032F0F6FD3A00029B00900191286809F08F
S315817033B02FF9071E01DDFFF7FEFBFFF763FB2B4934
S315817033C06068022231F030FD061E00D098E0A36855
S315817033D01B78702B5ED1286828F0C2F804002448C7
S315817033E032F0C2FC234832F0BFFCA64201DBFFF704
S315817033F0E2FB286808AB06AA310028F06CF8071E34
S315817034003CDA28F0DBFC01001B48FFF739FBC0462C
S31581703410628C748163C27381D0B9748169C273811C
S3158170342070C273816DC2738178C2738185C27381F3
S31581703430B4C27381C46E7381D0C27381DFC27381EA
S31581703440F6C273810CC3738123C373813AC373814B
S3158170345048C373815FC3738176C373818DC37381EF
S31581703460A4C37381BBC3738165F4738163217481D2
S31581703470BFC37381ABB37381DAC37381089B0193C5
S31581703480099B31000093079A069B5D4832F06CFC6C
S315817034900136AAE7612B1CD110220100E06832F057
S315817034A077FD1022070002912069310032F070FD9C
S315817034B03A00029B00900191286828F041FF071E0F
S315817034C001DBFFF778FB28F079FC01004D48FFF7A7
S315817034D0D7FA642B01D0FFF76FFA01001022E068EA
S315817034E032F0D4FC0100286828F08DFF071E01DBBD
S315817034F0FFF761FB28F062FC01004348FFF7C0FAD1
S3158170350042496068032231F08FFC00280ED14B4608
S3158170351019682868FEF782F9002801D1FFF74BFBFD
S3158170352028F04CFC01003A48FFF704FB3949606882
S31581703530032231F079FC071E1FD1029B022B19D011
S31581703540042B01D0FFF738FA01001022A06832F0FF
S315817035509DFC102239000600E06832F097FC040069
S31581703560286808F07FFF28682200310008F0D8FEAD
S31581703570FFF788FA04000600F2E72749606802229D
S3158170358031F052FC011E1FD1029B032B01D0FFF734
S3158170359013FA2B68002B01D1FFF762FAA06810220B
S315817035A032F074FC089008A8FFF7DCF8002801D186
S315817035B0FFF756FA0899286809F02AF9071E01D18A
S315817035C0FFF760FAFFF74CFA14496068022231F00E
S315817035D02BFC071E01D0FFF7EFF9029B0100022B2E
S315817035E004D0A068102232F051FC0100286809F0DD
S315817035F09FF8FFF747FA0A4B1B680893FFF72DFA76
S31581703600F9C3738113C4738132C4738151C4738155
S3158170361055C47381D9C87381E42A7481147B74818A
S31581703620D0B9748113B50024009423F0CDFD16BDF5
S3158170363013B50024009423F0EBFD16BD13B5002459
S31581703640009423F01BFF16BD13B50024009423F05C
S31581703650DFFE16BD13B50024009423F0F1FF16BD6D
S3158170366010B523F085FF10BDF0B5CE4600B51600B6
S3158170367096B001911C0031001CAB00221F780500A9
S315817036801BF097FC011E2CDB2368002F03D1DA0710
S3158170369001D4022821D09A0713D5019A002A10D015
S315817036A004273B4205D00A200CF0CCFA2368BB4331
S315817036B0236001990C4832F057FB226802239A43A2
S315817036C022603100502302AA28001BF085FC011E5E
S315817036D007D1064802A932F047FB16B080BCB946BD
S315817036E0F0BD0348F7E7C046F5F47381EF0E748138
S315817036F0E3A37381F0B5CE4600B588B017001D007F
S315817037000390012A02DC0124644227E05C68022A64
S315817037102ED08149986831F079FB002823D00835FD
S3158170372000272E687D490222200031F07DFB00281A
S3158170373000D06EE00690002E04D033785A1E9341E5
S315817037405B421E4005A9242015F061FA0100059897
S31581703750002813D1039811F099F80400200008B05D
S3158170376080BCB946F0BD0C35032F04D00127D8E74C
S3158170377000273E00D6E701270600D3E7069B022283
S31581703780002F00D00322134307A906931BF005FC73
S31581703790079B0500002B03D105A815F04DFAD5E7D7
S315817037A0002813D031F05EFB0400002E2FD002006A
S315817037B02900300031F0C8FA002808D0069A022311
S315817037C01A42E9D1DB1813430693E5E704003019F1
S315817037D0002E1CD00478002C15D00A22002132F0DC
S315817037E055FB01230093290006AB02000598FFF76C
S315817037F03BFFE3E7002322000093059806AB29007F
S31581703800FFF732FF0134079B9C42F3DBD6E7002436
S31581703810F9E7002E00D176E72378732B18D013D869
S31581703820632B17D00025692B00D06CE7002207AB7C
S31581703830110030001BF0D0F9041E0DD031003848CC
S3158170384032F092FA210085E70325742BEED05AE780
S315817038500125EBE70225E9E7324907981BF05FFA04
S315817038601023040010349C43039004D007992E488A
S3158170387032F07AFA47E707982C4F002D25D11BF045
S3158170388095FA07981BF068FB04003100079A28485F
S3158170389032F06AFA27482100BC422AD8264832F08B
S315817038A063FA002D28D007981BF056FB0100B842A9
S315817038B01CD9224832F058FA039B0124103300D167
S315817038C04CE707981BF062FA48E7022D09D001246C
S315817038D0032D06D11BF040FB0400B84201D8634228
S315817038E05C41079821001BF07BFACEE784420FD0AA
S315817038F0134832F039FADFE7039B103300D12DE795
S3158170390007981BF043FA002D00D127E7002425E79D
S31581703910039B1033FAD0F3E7F9457481866274811B
S3158170392014C573812AC5738133C5738100F0FFFF16
S3158170393053C5738174C5738144C3738186C573811D
S31581703940B2C5738110B503780C002A2B12D1013060
S315817039501022002132F09AFA0300022C06D0042C30
S3158170396006D00020012C00D1187810BD0088FCE7A4
S315817039700068FAE71022002132F088FA032CF4D815
S315817039800123E4005B42A3409843EEE710B50378C8
S315817039902A2B05D101301022002132F077FA10BD21
S315817039A0242BFCD143787B2B0ED1821C1300187883
S315817039B07D2805D100211000197005F0EBFBEEE72B
S315817039C001330028F3D1EAE70020E8E7F0B585B046
S315817039D007001E000291039231F044FA384D01902E
S315817039E0019A2968380031F01FFA041E5DD1286862
S315817039F031F038FA019B834257D16F68002E27D1F7
S31581703A000298FFF7C3FF05000398FFF7BFFF010018
S31581703A10280031F0FBF90300052F07D8380032F002
S31581703A208BFE03080C0E12155C425C41200005B0BA
S31581703A30F0BD1C00631E9C41F8E7DC0FF6E7DC17CE
S31581703A40E41AE40FF2E75C1E1C43FAE7DC43F8E7FD
S31581703A5031000298FFF776FF310005000398FFF772
S31581703A6071FF0300052FE1D8380032F065FE030738
S31581703A700B101419ED1A6C426C41D7E7EC1A651E5E
S31581703A80AC41D3E701249D42D0DB0024CEE70124EB
S31581703A909D42CBDCF9E7EC0FD817AB424441C5E7C1
S31581703AA0EC17D80F9D424441C0E7054B0835683302
S31581703AB09D4200D094E73900024832F055F9E4E727
S31581703AC02C757381DD98738110B511001C00042AE1
S31581703AD01AD1186810F040FE0300022808DC00280D
S31581703AE008DC02330ED00A480CF0F4F8002006E0A8
S31581703AF00428F8D1E2686168A068FFF767FF4342DE
S31581703B00584110BD0023F5E701204042F9E7C046D0
S31581703B1047C87381034B00221A60034B1A68034BA3
S31581703B201A60704714BA7481ECB9748104BA74815D
S31581703B30064B1A68064B1A60064B1A68064B1A6052
S31581703B40064B1A68064B1A607047C046FCB9748179
S31581703B5000BA748114BA748118BA748104BA748182
S31581703B6008BA7481064B1A68064B1A60064B1A6836
S31581703B70064B1A60064B1A68064B1A607047C04628
S31581703B8000BA7481FCB9748118BA748114BA74815B
S31581703B9008BA748104BA74814B4608B50CF06FF813
S31581703BA0002804D00CF07CF808BC994600BD012031
S31581703BB04042F9E7F0B5224CCE4600B5A544029154
S31581703BC00500694601A811F037F800260400B04255
S31581703BD02DD18027FF006A46390004A811F0FAF8C2
S31581703BE0021E1DDC684611F0DFF91649002011F0BE
S31581703BF001FA21001F231F319943280032F03CFDC1
S31581703C0022002100104832F0AFF821000F4805F0EC
S31581703C108DF928008223DB009D4480BCB946F0BDB6
S31581703C20701904A9A418B61832F03EFDD3E700982E
S31581703C3011F018FA34000100054832F095F8D1E791
S31581703C40F0FBFFFF993B7081440174816C01748133
S31581703C50EF0E7481044B1B68002B04D1034A1368E1
S31581703C60591C11601870704714BA748104BA7481C2
S31581703C70074B002201331978002905D11006800F70
S31581703C8080183F231840704701335218F3E7C046B6
S31581703C90D4B974810B4B30B5CE4600B51C68002CF7
S31581703CA006DC094C2078002808D120BCA94630BD95
S31581703CB0064B013C18780BF0C5FFF0E701340BF029
S31581703CC0C1FFEFE7F4B97481D4B97481F1B97481A4
S31581703CD0F0B54B4CCE46012600B50023A5447642FD
S31581703CE005900493039348AD0BF0DAFF454B1B683F
S31581703CF0070604003F0E002B02D038000BF0A2FF9E
S31581703D00FF231C400A2C5FD05CDC002C69D0032C0D
S31581703D1067D04B462F705A6F3B4B52689A4268D127
S31581703D200135C9AB9D42DFD1882004AA812140002B
S31581703D3000238900121853544BE0032814DC0028A1
S31581703D4015D0079A059B08A99C182000069A32F00F
S31581703D50ABFCA64200D92600069B013B1C19039B2E
S31581703D60A34204D2039402E00738022813D9254B63
S31581703D701B68002BB7D1049B01330493049A234BA0
S31581703D805A4313000222D341214A9342ABD82E2043
S31581703D900BF058FFA7E71F4831F052F9039B039A3E
S31581703DA05C1CA41B230031001B48009431F0DCFF9E
S31581703DB02100300032F060FC1848210005F0B6F819
S31581703DC0079810E00D2CA4D100232B7048ABED1A07
S31581703DD007D408AB07AA06A948A810F08FFD00285A
S31581703DE0ABDA01204042CA239B009D4480BCB94610
S31581703DF0F0BD0BF0F3FF002800D191E7F1E7C046E3
S31581703E00D8FCFFFF848C7481A1FC7081295C8FC280
S31581703E10285C8F0210270000DF0074816C01748129
S31581703E20F0B5CE461E4800B515001C0005F0B2F9F6
S31581703E30011E03D0017831394B425941194B002605
S31581703E401960022D05D131006068102232F06DF84B
S31581703E500600154831F088FF3000FFF739FFFA26E2
S31581703E606424B60005000BF00AFF002801D00BF020
S31581703E7017FF3000013C31F0E3F8002CF3D16B1C55
S31581703E8006D10A4831F070FF012080BCB946F0BD79
S31581703E900748290031F068FF064B20001D60F4E762
S31581703EA0D2C87381848C7481DDC8738101C9738131
S31581703EB01FC9738130987481F0B5CE4600B5B94803
S31581703EC088B014001D0005F065F900285DD01022B8
S31581703ED0002131F0DBFF01904B469B68039302937F
S31581703EE0012C27DD68681022002131F0CFFF039BFA
S31581703EF002930190032C1DD1A8680A22002131F00A
S31581703F00C5FF0290002844D0039B834212D00100E2
S31581703F10A54831F029FFA54831F092F8029A4B46AF
S31581703F209A601BF0CDFAA14831F08AF80BF0B8FE91
S31581703F300D28FBD19E49286830F068FF041E2BD16D
S31581703F400199029A9B4831F00FFF02210198FFF780
S31581703F5031FE039B029A934212D01900964831F032
S31581703F6003FF924831F06CF8039A4B469A601BF0C6
S31581703F70A7FA8E4831F064F80BF092FE1B28FBD1BC
S31581703F80200008B080BCB946F0BD81231B06019321
S31581703F90A2E7039B0293CDE78849286830F036FF04
S31581703FA0029A0199041E04D1854831F0DDFE012102
S31581703FB0CCE7844831F0D8FE834B019A1A60834BE3
S31581703FC0834A1A60834B844A1A60844B0D221A7015
S31581703FD0834B00241C60834B16321C70824B1A7083
S31581703FE0824B1C60FFF796FDFFF7A2FD01235B42B2
S31581703FF0059407937E4B7F4A1A600BF051FE012818
S3158170400003D00328F9D100259DE10BF049FEE02408
S315817040100500204200D18EE00BF042FE0600204260
S3158170402000D188E0FF231E403200203A06921A4062
S3158170403013000592079A934241D1FFF793FD0BF0D6
S315817040402FFEE0230400184275D0FF273D40AE193C
S315817040503840203D82193D40AE1E0492002D2AD1F2
S315817040600BF01EFEE0230600184264D00BF018FE9A
S31581704070E023050018425ED00BF012FEE0220300A9
S31581704080104258D0049A3E403D40921952191106F9
S31581704090890F88183F21014020311806000E884209
S315817040A049D1203E3E405F214E43203D3D401F40D9
S315817040B0BB18761904932406240EFF2523E0FFF797
S315817040C037FD059B0793BAE70BF0EAFDE021030004
S315817040D01A000006000E2A400B422CD0049B013E2A
S315817040E09B180493442C50D1404B1A68002A42D0B5
S315817040F0384B1A6860230340402B35D198439047DB
S315817041003A4B00221A60012EDEDC0BF0C9FDE023EA
S31581704110184210D0049B00061F06BF0FFF183F235D
S315817041201F402037000EB84205D10BF0B9FD00064D
S31581704130000E0D2862D0FFF715FD2F4C01232370D9
S3158170414022336370059B00252033A3704E23E37061
S315817041502571FFF78DFD214BA5711B786371203019
S315817041602071FFF797FD45E77F2303403F2BC6D12B
S3158170417001331843C3E71C4A1278824201D1012266
S31581704180C0E7144B1B689847BDE7532CBBD1184BBE
S3158170419018491A681431571C1F6010708F42B2D338
S315817041A0B0E7C0463DC9738146C9738150C300006B
S315817041B078C973817EC9738166CA7381BDC97381FA
S315817041C0C3C9738102CA7381ECB9748110BA74815F
S315817041D0153B70810CBA7481553C7081F0B97481CC
S315817041E0F4B97481F1B97481F8B97481FCB9748147
S315817041F030BA74811CBA7481D4B9748106992031AC
S315817042000906090E532C00D081E0654B654A1870FA
S3158170421000231360644A65481370654B23221A70B4
S31581704220644B02001C681332944202D1020012322E
S315817042301A601B6803241B1A002B4BDD5E4D7E2290
S3158170424001342A71012B45D05D3A01346A71022B92
S3158170425040D08278534C203A1206120E2260202268
S315817042600624AA71032B35D0C2786020104040286D
S3158170427046D182434C48072402704F4A4020D07100
S31581704280042B27D0494D464C2879203820702D2013
S3158170429008241072052B1DD045486C790470232033
S315817042A009245072062B15D02B3001349072072B4E
S315817042B010D02734D472263C082B0BD0013410735E
S315817042C0092B07D022235373023B937304345E33D5
S315817042D0D3731374384D01232B7023002033671CDD
S315817042E06B7000265923EB70A970EE55FFF7C0FCF1
S315817042F02B4B2C191B782030E855A370E67030E76C
S315817043007F2010403F28B5D101300243B2E72A4D54
S3158170431001232B70223300266B703633EB70A970B4
S315817043202E71FFF7A5FC1E4BAE711B786B71203019
S315817043302871FFF7AFFC422C00D05BE61F4B1D68DE
S315817043401F4B1B68ED1AFA266424B6000BF097FC96
S31581704350002801D00BF0A4FC3000013C30F070FED7
S31581704360002CF3D12900019832F086F92A002900B0
S31581704370144831F0F9FC2900134804F0D7FD019BEC
S31581704380124D013305D112482C6031F0EDFC0134A8
S31581704390DFE501990F4831F0E7FC019B2B60D8E589
S315817043A0F0B97481F4B97481F1B974811CBA74816C
S315817043B0F8B9748130BA7481D4B9748104BA74814C
S315817043C0ECB97481440174816C0174813098748103
S315817043D041CA73811FC97381F0B5CE4600B584B069
S315817043E01E000292012A3EDD204B01251F680B00BB
S315817043F02B40039329421CD01D4B1D681D4B1C6895
S315817044002100102032F000F93E0066433B002900FE
S3158170441022000090280030F04BF9154BAD191D60C4
S31581704420124B00201F60134B1C6004B080BCB946D0
S31581704430F0BD3068042110F08FF904002800002C3B
S31581704440F3DB03997068102231F020FD0A4B1D68E9
S31581704450029B4519022BD3D00399B068102231F093
S3158170446015FD0700CCE701204042DEE7888C748118
S3158170447038BA74813CBA748134BA748130B5CE4697
S31581704480084C00B5012A05DD58681022002131F0EB
S31581704490FDFC20602168044831F066FC002020BC58
S315817044A0A94630BD34BA748196CA738180B5CE46B9
S315817044B000B583B0022A0DDD0433013A019300926F
S315817044C00B0002000021054805F0EAF803B080BCB4
S315817044D0B94680BD01204042F8E7C0462CCB738136
S315817044E0F0B5CE461D00D31E170000B5012B3DD801
S315817044F010220021A86831F0C9FC10220021060023
S31581704500686831F0C3FC0400042F1ED1E86810225C
S31581704510002131F0BBFC002803D1164831F024FC10
S31581704520154830F003FFB508AD006519AC4214D15A
S31581704530032700243740A74213D81048310031F041
S3158170454013FC002080BCB946F0BD0020FBF7AAFFA2
S31581704550050030F0E3FE6840E3E730F0DFFE01C42A
S31581704560E4E730F0DBFE28550134E4E70120404270
S31581704570E8E7C046C0CE7381EFBEADDEE9CE73810A
S31581704580F0B5CE461E00130000B5033B82B0009293
S31581704590012B32D83068042110F0DEF80124051E13
S315817045A01BDD10220021706831F070FC144B1022D3
S315817045B01B680021C318B068019331F067FC009BBA
S315817045C00700042B05D1F0681022002131F05EFCC2
S315817045D00400019B013C05D20024200002B080BCFE
S315817045E0B946F0BD042D02D11F605B19F2E7022D29
S315817045F001D11F80F9E71F70F7E701246442ECE768
S3158170460034BA7481F0B5CE461E0000B5022A36DD05
S315817046101868042110F0A0F8051E35DB10220021E0
S31581704620706831F033FC102200210400B06831F0DB
S315817046302DFC012809D1042D01D12368FDE7022DB6
S3158170464001D12388FDE72378FDE7042D06D1230068
S315817046500200002AFBD002CB013AFAE72218022D1A
S3158170466007D122000300002BFBD01188013B023257
S31581704670F9E723009342FCD019780133FAE70120D8
S31581704680404280BCB946F0BD0120FAE7F0B5CE460E
S3158170469000B5110088B01E00042A57D1186810F031
S315817046A05BF80127041E41DB2A4D082806D02A4D66
S315817046B0042803D0294D022800D0294D7068102214
S315817046C0002131F0E3FB274F10223B680021C3188C
S315817046D0B068079331F0DAFB3F6810220021C71961
S315817046E0F06831F0D3FB079A0026BB1A9C46634665
S315817046F0D118B04201D1002713E0042C1BD1136865
S3158170470009688B421FD007980491101A3F18029737
S3158170471000931548230029000394019531F024FBF9
S31581704720012712482A00310031F01EFB380008B08B
S3158170473080BCB946F0BD022C02D113880988E0E7A6
S3158170474013780978DDE712190136D0E701277F42A0
S31581704750ECE7C046B6CA7381BDCA7381ADCA73812F
S31581704760C2CA738134BA7481C7CA7381F9CA7381B3
S31581704770F0B50B00CE46012500B52B4084B00600FE
S315817047801700019329421ED02A4B1D682A4B1C683B
S315817047902A482900270031F0E7FA042C24D12968A8
S315817047A0274831F0E1FA27480BF0BCF8002806D08B
S315817047B0254F012820D13B782D2B1DD16742002EA4
S315817047C0E6D0ED19E4E7106804210FF0C5FF040007
S315817047D02800002C2ADB01997868102231F056FB6B
S315817047E01A4B1D684519D3E7022C02D129881848BE
S315817047F0D7E729781748D4E7102203A9380031F012
S3158170480045FB039BBB420CD0042C04D12860002E3F
S31581704810BED02D19BCE7022C01D12880F7E728700C
S31581704820F5E7044B00201D60034B1C6004B080BC0F
S31581704830B946F0BD40BA748144BA7481F305748106
S31581704840FA0574810C06748144C2748134BA748198
S315817048500006748106067481484601B5022A06D11E
S315817048601A000120FFF784FF08BC994600BD01201C
S315817048704042F9E7F0B5CE4600B5110084B01C0010
S31581704880042A30D118680FF067FF0126051E19DBDF
S3158170489010220021606831F0F9FA144F10223B68BA
S315817048A0002102930190A06831F0F0FA1022002164
S315817048B03F680390E06831F0E9FA002807D10C4827
S315817048C00BF008FA300004B080BCB946F0BD029B8B
S315817048D001999C46039B02006A436144D81931F061
S315817048E0E3FE0026EEE701267642EBE734BA748161
S315817048F01BCB7381484601B5022A06D11A00002066
S31581704900FFF736FF08BC994600BD01204042F9E7A2
S31581704910F7B5002014001D00FBF7C4FD0600022CBC
S3158170492002D001204042FEBD0A220021686831F022
S31581704930ADFAFA24A4002E212300434368680093BC
S3158170494030F084FA041E0BD0031D451C00246420AC
S315817049500A2701932B78002B02D0019A954208D1B0
S31581704960009BE4183000FBF79DFDA0420FD3002019
S31581704970D9E7303B1A06120E092A06D84343390005
S31581704980E418013531F0F8FDE4E70024E8E70BF02F
S3158170499025FA0028C5D1643030F052FBE2E7000079
S315817049A0F7B5170001900D00586816490B221E0045
S315817049B00FF0FDFB331D013F0093041E1FD043682A
S315817049C0BB421CDB012D04D10F4BA26800209A4299
S315817049D014D10E4E3368002B05DA18F0BBFE002811
S315817049E008DD00233360E468009B01983A00290052
S315817049F0A04703E006480BF06DF90120FEBD01204A
S31581704A004042FBE78C8C748191477181C08D748132
S31581704A105DCE738170B505000E0018F07DFE041EA3
S31581704A2005D10E48290031F09FF9200070BD18F02C
S31581704A30C6FD002801D0002E01D00023E36020003E
S31581704A4018F0C0FC002806D1200018F08FFE03C82C
S31581704A5016F05EFAE9E70024E7E7C04696FD7381B2
S31581704A60044B10B501211868FFF7D4FF43425841B2
S31581704A7010BDC046C08D7481F0B595B0002102928B
S31581704A8009A82C22049331F047FEBB4B002118688C
S31581704A90FFF7C0FF01240690002805D0029B002BEA
S31581704AA000DD59E101246442200015B0F0BD049BFC
S31581704AB0AE009F19B149386830F0A8F9041E57D1F4
S31581704AC06B1C0793079A029B04369B1A0393049B6C
S31581704AD001009B190C2209A8059331F01DFE039BD9
S31581704AE0A34202DC079B1D19C3E0059BA5005F19D4
S31581704AF0A349386830F08AF9061E11D1039AA31C2E
S31581704B009A42CFDD01000A22786831F0BFF90A2214
S31581704B10310003340990B86831F0B8F90A90DEE74C
S31581704B209849386830F072F90028DBD1039A631C92
S31581704B309A42B7DD09AE337A012213433372059BEC
S31581704B4004355D199049286830F060F9002805D1DF
S31581704B50337A0222134302343372C0E78B49286851
S31581704B6030F054F900289DD1337A02229343F2E7CB
S31581704B7087493868022230F057F9041E71D1386836
S31581704B8030F070F903286CD13B689B781A00313A02
S31581704B9005921206120E032A63D86A1C0792079928
S31581704BA0029A303B521ADD000392049A09AB04369D
S31581704BB0281D181896192100082231F0ADFD039B26
S31581704BC0012B00DC6EE730680A22210031F05EF934
S31581704BD009AB5D1968600125AF00F41968492068D1
S31581704BE030F014F900280FD1059B09AA0133DB0037
S31581704BF0D3181A7A01210A436D181A72039B9D4242
S31581704C00EADB079B5D1934E05E49206830F0FEF877
S31581704C100028F6D1039A6B1C9A4200DC42E7059B09
S31581704C2002225C1CE40009AB1C19237A04371343F6
S31581704C30F71955493868237230F0E8F8002805D19C
S31581704C40237A0422134302352372D7E74F49386892
S31581704C5030F0DCF8002800D024E7237A04229343CD
S31581704C60F1E74C49386830F0D1F8002860D10135C8
S31581704C700190029B9D4200DA19E7474809AC0BF017
S31581704C8029F86368002B6AD044480BF023F8444DA9
S31581704C9009982A00C10D40022FF09CFC41480BF007
S31581704CA019F860682A00C10D40022FF093FC237AAF
S31581704CB0DA0706D534499B0700D434493A4831F02E
S31581704CC053F800262700E368350001363100002B42
S31581704CD049D0364831F048F8F300FB18E0681B7A02
S31581704CE0C10D334A4002DB0700D42D4A2FF072FC86
S31581704CF00135ED007D192B7A9A0707D5224A5B0714
S31581704D0000D4224A2B48310031F02EF80834042E13
S31581704D10D9D1019A0698390017F024FC041E26D140
S31581704D20019B022B00D0BFE623480AF0D3FFBBE676
S31581704D302249386830F06AF8002803D10135012399
S31581704D40019396E71E49386830F060F8002800D0E4
S31581704D50A8E601350223F3E701250023F0E7194818
S31581704D600AF0B8FFA3E7184830F0FEFFC0E717488E
S31581704D700AF0B0FF012497E6C08D748178CC738177
S31581704D807DCC738181CC7381D56474818DB573814A
S31581704D9087CC738120FD738193CC7381ADCC738104
S31581704DA0F80A7481C4CC7381F7CC73811ECD7381FB
S31581704DB072CC738143CD738160CD73810DFD7381A7
S31581704DC08ACC7381DACC73812FCD738198CD7381BF
S31581704DD00A2010B518F000FD002010BDF8B51D0031
S31581704DE0012A23D1274B1C68002601212000FFF759
S31581704DF011FE071E37D032002100062015F054FEB1
S31581704E00214A051E00D0214A2148310030F0ACFF7D
S31581704E10002D28D11B4B1C603B0069331B78FF2BFF
S31581704E2024D121001B4830F09FFF1DE0022A06D154
S31581704E3058680832002131F029F80400D4E7032A32
S31581704E401DD158680732002131F020F80A220021DD
S31581704E500400A86831F01AF806000728C5DD0E48E7
S31581704E60072130F081FF01252800F8BD380018F040
S31581704E707DFC2100C27A094830F076FFF4E701257E
S31581704E806D42F1E7C08D7481FC987381FF9873814F
S31581704E90B2CB7381D0CB73818BCB7381E9CB738129
S31581704EA00C4B10B500211868FFF7B4FD002802D1AC
S31581704EB00124200010BD4368002B03DA064830F0C8
S31581704EC053FFF5E717F012FB041EF1D1034830F05A
S31581704ED04BFFEEE7C08D74815BCB738175CB73812C
S31581704EE0F0B59F4C0368A544196804009D4830F05D
S31581704EF03BFF636D9C48190E30F036FF636D9B489E
S31581704F00190A0904090C30F02FFFA06D616D020E2C
S31581704F10FF25030C0600000A28402E402B402940AD
S31581704F2000900196924830F01FFFE169914830F008
S31581704F301BFF2300F833186816F014FF01008E48A2
S31581704F4030F012FFA16A8D4818F040F9E16A8C48F9
S31581704F5018F03CF9616F8B4830F006FF62688A49B8
S31581704F60002A00DB8949130A120C2B4088482A4093
S31581704F7030F0FAFE6368190029402B4202D08548C9
S31581704F8030F0F2FE844D280030F0EEFE23698349BD
S31581704F90002B00D18249834830F0E6FE82480AF0C0
S31581704FA099FE23009033186859682A002FF012FBF6
S31581704FB02300E4331B68A1697C4A002B00D17C4AAB
S31581704FC07C4830F0D1FE7C480AF084FEE06F2A007E
S31581704FD0C10D40022FF0FEFA784A63689B18784AB1
S31581704FE0934200D9AEE0230066331A78022311000A
S31581704FF01940002603911A4204D0230067331E7824
S3158170500001231E4004AA27239B181F2293436D48B0
S3158170501004930AF05FFE231DD86F2A00C10D4002EA
S315817050202FF0D8FA68480AF055FE2300983318682D
S315817050305968664A002E00D15D4A2FF0CBFA23005B
S31581705040683305931B78DB0700D47FE060480AF0EC
S3158170505041FE002E13D05F480AF03CFE2300D03308
S31581705060186859682A002FF0B5FA5B480AF032FE43
S315817050702300D833186859682A002FF0ABFA57483D
S315817050800AF028FE2300A03318685968039B544E92
S31581705090002B00D12E0032002FF09CFA51480AF075
S315817050A019FE2300A8331868596832002FF092FAD6
S315817050B02700B0370025039B00260135B34205D002
S315817050C0230067331E7801232E411E403B687A6820
S315817050D0134314D02900444830F046FE3868796805
S315817050E03A4A002E00D1324A2FF074FA059B01227A
S315817050F01B782B4113422DD035480AF0EBFD0837CA
S31581705100042DD8D12000049916F0B6FF041E19D14A
S31581705110049B0326AE331D7801273448210030F075
S3158170512023FE2B0032483340012B06D03148022BA7
S3158170513003D03148002B00D0304830F015FEAD08D1
S31581705140012C0BD18F239B009D44F0BD0A200AF060
S3158170515079FD7EE70A200AF075FDD0E73C00DCE731
S31581705160C4FDFFFFE50F7481F10F748106107481A0
S315817051700F10748122107481311074813B10748187
S315817051804D1074815F1074810A557481C30F748157
S31581705190711074817E107481F80A7481D40F748150
S315817051A0D80F748182107481FD107481DB0F7481C4
S315817051B0F90A748195107481AA107481FFFBFBBF03
S315817051C0FEFBFB3FBD107481D0107481E00F74813A
S315817051D0E0107481AECC7381C5CC7381E810748113
S315817051E072CC7381F81074811FCD738108117481AB
S315817051F02E117481421174811911748159117481BE
S3158170520010B50D4C2368002B05DA18F0A3FA002827
S315817052100CDD0023236020680021FFF7FBFB01234F
S31581705220002807D0FFF75CFE002303E003480AF0ED
S3158170523051FD0123180010BDC08D74815DCE7381BF
S3158170524070B5022A27D158680E32002130F01EFEC1
S31581705250124E0400306818F05FFA051E06D1316867
S315817052600F4830F081FD0124200070BD2104090CA6
S3158170527018F003F90B49041E00D00B490B4830F026
S3158170528073FD002CF0D1EC60280018F09BF80400B7
S31581705290601E8441E8E701246442E5E7C08D74812C
S315817052A096FD7381F9CD7381FF9873810ACE73816F
S315817052B010B50D4C00212068FFF7ACFB0123002847
S315817052C00BD02168062015F0DEFB002807D0037B02
S315817052D0FF2B04D00FF0DEFF0023180010BD0348AA
S315817052E00AF0F8FC0123F8E7C08D7481A1CD738132
S315817052F0F7B51C00032A38D158680D32002130F079
S31581705300C5FD1022002101250190A06830F0BEFDF7
S31581705310174F002104003868FFF77CFB061E0ED0FC
S31581705320019A39682300134830F01EFD300018F059
S315817053302FF90500012804D10F4830F015FD28009A
S31581705340FEBD300018F012FA2200019915F03BFC6F
S315817053500A4A0500844200D0094A29000948651B1A
S3158170536030F002FD6C1EA541E9E701256D42E6E745
S31581705370C08D74810BCC73813BCC7381FC987381A6
S31581705380FF9873815CCC7381F7B51C00042A3FD179
S3158170539058680C32002130F079FD102200210125E8
S315817053A00190A06830F072FD102200210090E068B3
S315817053B030F06CFD184F002104003868FFF72AFB26
S315817053C0061E0ED0009A39682300144830F0CCFC42
S315817053D0300018F0DDF80500012804D1104830F04E
S315817053E0C3FC2800FEBD300018F0C0F92200019B75
S315817053F0009915F0B6FB0B4A0500844200D00A4A23
S3158170540029000A48651B30F0AFFC6C1EA541E8E7A0
S3158170541001256D42E5E7C046C08D748116CE7381D4
S315817054203BCC7381FC987381FF98738146CE73816F
S31581705430F7B51C00042A35D158680C32002130F03A
S3158170544025FD102200210190A06830F01FFD1022E9
S3158170545000210500E06830F019FD144F0021040029
S315817054603868FFF7D7FA06000120002E19D02A0076
S31581705470396823000E4830F077FC300018F076F9E1
S3158170548022002900019B15F021FB0A4A05008442FE
S3158170549000D0094A0948290030F066FC601B441E19
S315817054A0A041FEBD01204042FBE7C046C08D74819C
S315817054B0B6CD7381FC987381FF987381E5CD7381C5
S315817054C0F0B5CE4600B51100089C099D17001E00E7
S315817054D030F098FC002807D10C480AF0FBFB0120BC
S315817054E0404280BCB946F0BD3A687B689D4204D81B
S315817054F001D1944201D80648EFE7A41A9D41069BD3
S3158170550000201C605D6034607560EAE71006748106
